:100000000C9434000C9451000C9451000C94510049
:100010000C9451000C9451000C9451000C9451001C
:100020000C9451000C9451000C9451000C9451000C
:100030000C9451000C9451000C9451000C945100FC
:100040000C9451000C9451000C94DE020C9451005D
:100050000C9451000C941A030C9451000C94510010
:100060000C9451000C94510011241FBECFEFD8E026
:10007000DEBFCDBF11E0A0E0B1E0E0E0FEE002C0F5
:1000800005900D92AC30B107D9F721E0ACE0B1E0BA
:1000900001C01D92AD31B207E1F70E9453030C94E9
:1000A000FE060C940000EAE7F0E08081806880831F
:1000B000808187608083808180618083ECE7F0E0CD
:1000C00080818560808380818064808383B7826043
:1000D00083BF089583B7816083BF88950895809119
:1000E0007A00002486FF0394802D90E0089583B762
:1000F000816083BF889580917A00806480937A00C4
:1001000080917A0086FDFCCF8091780090917900F3
:1001100008958827F99B839590E00895DC01FB0101
:100120009A01F894452B91F0260F371FA61BB70BA9
:10013000CF018A0F9B1FF999FECF92BD81BD81919E
:1001400080BDFA9AF99AE217F30791F77894089527
:100150000F931F93CF93DF938C01EB01F894CB01A6
:100160000E94D705FC01209791F0C80FD91F081BEA
:10017000190B9F01200F311FF999FECF32BD21BD10
:10018000F89A90B59193EC17FD0799F7FE017894D2
:10019000CF01DF91CF911F910F9108951F93CF93BE
:1001A000DF93182FB42FA52FF62FE72F20E030E094
:1001B00048EC52E46B2F7A2F8F2F9E2F0E941D0543
:1001C0000E948A050E946004EB01812F0E94450372
:1001D0008D2F0E9445038C2F0E9445038AE0DF91FA
:1001E000CF911F910C944503CF93DF930E9477002A
:1001F000BC0180E090E00E948F0420E030E040EA03
:1002000050E40E941D0520E030EC4FE754E40E94CA
:10021000EE0320E030E048EC52E40E941D050E940D
:100220008A050E946004EB0186E50E9445038D2F3C
:100230000E9445038C2F0E9445038AE0DF91CF91F5
:100240000C944503CF93DF930E947700BC0180E0BC
:1002500090E00E948F0420E030E040EA50E40E94E9
:100260001D0520E030EC4FE754E40E94EE0320919E
:1002700015013091160140911701509118010E940B
:100280001D052091110130911201409113015091EF
:1002900014010E94820320E030E048EC52E40E9406
:1002A0001D050E948A050E946004EB0189E40E94FA
:1002B00045038D2F0E9445038C2F0E9445038AE041
:1002C000DF91CF910C944503CF93DF9320E030E092
:1002D00048EC52E46091150170911601809117016C
:1002E000909118010E941D050E948A050E946004D9
:1002F000EB0181E40E9445038D2F0E9445038C2F62
:100300000E9445038AE0DF91CF910C944503CF937F
:10031000DF9320E030E048EC52E4609111017091ED
:10032000120180911301909114010E941D050E94F9
:100330008A050E946004EB0182E40E9445038D2F30
:100340000E9445038C2F0E9445038AE0DF91CF91E4
:100350000C944503CF93DF93BC0180E090E00E94B2
:100360008F0420E030E048EC52E40E94EE036093FA
:10037000150170931601809317019093180144E0C2
:1003800050E061E171E080E090E00E948E0064E066
:1003900070E080E090E00E94A80020E030E048ECAF
:1003A00052E4FC0160817181828193810E941D056C
:1003B0000E948A050E946004EB018EE40E944503BE
:1003C0008D2F0E9445038C2F0E9445038AE0DF9108
:1003D000CF910C944503CF93DF93BC0180E090E074
:1003E0000E948F0420E030E048EC52E40E94EE03CB
:1003F0006093110170931201809313019093140183
:1004000044E050E061E171E084E090E00E948E0001
:1004100064E070E084E090E00E94A80020E030E01A
:1004200048EC52E4FC0160817181828193810E94D9
:100430001D050E948A050E946004EB018DE40E9464
:1004400045038D2F0E9445038C2F0E9445038AE0AF
:10045000DF91CF910C944503CF93DF93FC01F89487
:100460009081228130E09D3409F4A1C0F0F49234EF
:1004700009F488C0993409F451C0913409F043C09B
:1004800020E030E048EC52E46091150170911601D3
:1004900080911701909118010E941D050E948A0504
:1004A0000E946004EB0181E423C09E3481F1963503
:1004B00051F50E947700BC0180E090E00E948F041B
:1004C00020E030E040EA50E40E941D0520E030ECDE
:1004D0004FE754E40E94EE0320E030E048EC52E4A1
:1004E0000E941D050E948A050E946004EB0186E5BA
:1004F0000E9445038D2F0E9445038C2F0E944503C7
:100500008AE00E9445037894DF91CF910895C90154
:100510000E94AA017894DF91CF9108950E947700FC
:10052000BC0180E090E00E948F0420E030E040EACF
:1005300050E40E941D0520E030EC4FE754E40E9497
:10054000EE03209115013091160140911701509151
:1005500018010E941D052091110130911201409156
:100560001301509114010E94820320E030E048EC16
:1005700052E40E941D050E948A050E946004EB015E
:1005800089E4B6CF20E030E048EC52E460911101FC
:100590007091120180911301909114010E941D0528
:1005A0000E948A050E946004EB0182E4A1CFC90188
:1005B0000E94EB017894DF91CF9108951F920F92E2
:1005C0000FB60F9211242F933F934F935F936F9326
:1005D0007F938F939F93AF93BF93CF93EF93FF93AB
:1005E000C0910C0181E08C0F80930C010E944C03A0
:1005F000EC2FF0E0E35FFE4F808380910C018430AC
:1006000091F0FF91EF91CF91BF91AF919F918F9119
:100610007F916F915F914F913F912F910F900FBEFE
:100620000F901F9018958DE091E00E942C0210927F
:100630000C01E7CF1F920F920FB60F9211248F93E8
:1006400083B78E7F83BF8F910F900FBE0F901F9047
:1006500018959093C5008093C400E1ECF0E0808190
:1006600088618083808180688083E0ECF0E0808115
:100670008260808308958091C000807290E0089528
:100680008091C000807890E008959091C00095FF1F
:10069000FCCF8093C60008958091C00087FFFCCFF7
:1006A0008091C600089564E070E080E090E00E94D0
:1006B000A800FC0180819181A281B3818093150102
:1006C00090931601A0931701B093180164E070E0B5
:1006D00084E090E00E94A800FC0180819181A281C9
:1006E000B3818093110190931201A0931301B093F1
:1006F000140178948FEC90E00E9429030E9453002B
:10070000FFCF5058BB27AA270E9499030C94E304FB
:100710000E94D50438F00E94DC0420F039F49F3F99
:1007200019F426F40C94D2040EF4E095E7FB0C9433
:10073000CC04E92F0E94F40458F3BA176207730738
:100740008407950720F079F4A6F50C9416050EF4AD
:10075000E0950B2EBA2FA02D0B01B90190010C01D1
:10076000CA01A0011124FF27591B99F0593F50F4E9
:10077000503E68F11A16F040A22F232F342F442741
:10078000585FF3CF469537952795A795F040539539
:10079000C9F77EF41F16BA0B620B730B840BBAF009
:1007A0009150A1F0FF0FBB1F661F771F881FC2F774
:1007B0000EC0BA0F621F731F841F48F48795779588
:1007C0006795B795F7959E3F08F0B0CF9395880F42
:1007D00008F09927EE0F9795879508950E940204D7
:1007E0000C94E3040E94DC0458F00E94D50440F00D
:1007F00029F45F3F29F00C94CC0451110C94170597
:100800000C94D2040E94F40468F39923B1F35523A5
:1008100091F3951B550BBB27AA2762177307840713
:1008200038F09F5F5F4F220F331F441FAA1FA9F3A9
:1008300035D00E2E3AF0E0E832D091505040E69597
:10084000001CCAF72BD0FE2F29D0660F771F881FF8
:10085000BB1F261737074807AB07B0E809F0BB0BEB
:10086000802DBF01FF2793585F4F3AF09E3F5105FF
:1008700078F00C94CC040C9417055F3FE4F3983E99
:10088000D4F3869577956795B795F7959F5FC9F7E8
:10089000880F911D9695879597F90895E1E0660F69
:1008A000771F881FBB1F621773078407BA0720F0E2
:1008B000621B730B840BBA0BEE1F88F7E09508954B
:1008C0000E94FC0488F09F5798F0B92F9927B751E0
:1008D000B0F0E1F0660F771F881F991F1AF0BA95E4
:1008E000C9F714C0B13091F00E941605B1E0089527
:1008F0000C941605672F782F8827B85F39F0B93F19
:10090000CCF3869577956795B395D9F73EF4909596
:100910008095709561957F4F8F4F9F4F0895E89414
:1009200009C097FB3EF490958095709561957F4F37
:100930008F4F9F4F9923A9F0F92F96E9BB279395E5
:10094000F695879577956795B795F111F8CFFAF4F5
:10095000BB0F11F460FF1BC06F5F7F4F8F4F9F4F26
:1009600016C0882311F096E911C0772321F09EE884
:10097000872F762F05C0662371F096E8862F70E0EA
:1009800060E02AF09A95660F771F881FDAF7880FC4
:100990009695879597F9089597F99F6780E870E095
:1009A00060E008959FEF80EC089500240A941616E5
:1009B000170618060906089500240A94121613064D
:1009C000140605060895092E0394000C11F48823DB
:1009D00052F0BB0F40F4BF2B11F460FF04C06F5FF7
:1009E0007F4F8F4F9F4F089557FD9058440F551FCD
:1009F00059F05F3F71F04795880F97FB991F61F0A1
:100A00009F3F79F087950895121613061406551F17
:100A1000F2CF4695F1DF08C0161617061806991F83
:100A2000F1CF86957105610508940895E894BB2778
:100A300066277727CB0197F908950E9430050C941B
:100A4000E3040E94D50438F00E94DC0420F09523D2
:100A500011F00C94CC040C94D20411240C941705BE
:100A60000E94F40470F3959FC1F3950F50E0551F59
:100A7000629FF001729FBB27F00DB11D639FAA27F3
:100A8000F00DB11DAA1F649F6627B00DA11D661F42
:100A9000829F2227B00DA11D621F739FB00DA11D63
:100AA000621F839FA00D611D221F749F3327A00D1D
:100AB000611D231F849F600D211D822F762F6A2FB9
:100AC00011249F5750409AF0F1F088234AF0EE0F1E
:100AD000FF1FBB1F661F771F881F91505040A9F74B
:100AE0009E3F510580F00C94CC040C9417055F3F99
:100AF000E4F3983ED4F3869577956795B795F79587
:100B0000E7959F5FC1F7FE2B880F911D96958795FE
:100B100097F908950E94FC04E8F09E37E8F09639B2
:100B2000B8F49E3848F4672F782F8827985FF9CF5C
:100B300086957795679593959539D0F3B62FB170D3
:100B40006B0F711D811D20F487957795679593959F
:100B50000C94AE050C94C9050C941705882371F408
:100B6000772321F09850872B762F07C0662311F446
:100B700099270DC09051862B70E060E02AF09A957D
:100B8000660F771F881FDAF7880F9695879597F974
:100B900008959F3F31F0915020F4879577956795A0
:100BA000B795880F911D9695879597F908950F939E
:100BB0001F93CF93DF939C01029710F422E030E063
:100BC000E0911901F0911A0180E090E0A0E0B0E01E
:100BD000309791F4009709F448C0821B930B84303E
:100BE0009105D0F58A819B816115710581F1FB0129
:100BF00093838283FE0111C0408151810281138160
:100C000042175307D8F04217530799F4109761F031
:100C100012960C93129713961C933296CF01DF9184
:100C2000CF911F910F9108950093190110931A010C
:100C3000F4CF009751F04817590738F0AC01DB01A9
:100C4000CA01BD01DF01F801C3CFEF01F9CF9093D5
:100C50001A0180931901CECFFE01E80FF91F2193ED
:100C60003193029799838883D9CF40911B0150918A
:100C70001C014115510541F44091020150910301BD
:100C800050931C0140931B01809100019091010140
:100C9000009741F48DB79EB76091040170910501F2
:100CA000861B970B4817590708F0B8CF841B950B84
:100CB0008217930708F4B2CFB9016E5F7F4F861792
:100CC000970708F4ABCF640F751F70931C016093F6
:100CD0001B01FA0121933193A1CFCF93DF939C01A4
:100CE0000097E9F0FC01329713821282C09119013A
:100CF000D0911A01DE0180E090E02097A1F480817C
:100D00009181280F391F80911B0190911C0182173E
:100D1000930709F068C0F0931C01E0931B01DF9179
:100D2000CF910895DA01AE17BF0708F042C01296BE
:100D30004D915C911397CD014115510599F7DC0157
:100D40001396FC93EE9312974D915D919D01240FA4
:100D5000351FE217F30781F4208131812E5F3F4F69
:100D6000240F351FDC0111963C932E932281338191
:100D700013963C932E931297E0E0F0E08A819B81DA
:100D80000097B1F5DE018D919D918A0F9B1F2091F7
:100D90001B0130911C012817390709F6309759F5C6
:100DA00010921A0110921901D0931C01C0931B01DB
:100DB000B6CFB383A28340815181240F351FA21780
:100DC000B30771F44E5F5F4F2D913C911197240F43
:100DD000351F3183208312962D913C9133832283DA
:100DE000009709F0ACCFF0931A01E093190197CF67
:100DF000FE01EC01C3CF13821282D6CFF894FFCF4D
:0C0E000000001D012000FF030000A040C6
:00000001FF
