:100000000C9435000C945D000C945D000C945D0024
:100010000C945D000C945D000C945D000C945D00EC
:100020000C945D000C945D000C945D000C945D00DC
:100030000C945D000C945D000C945D000C945D00CC
:100040000C945D000C945D000C941C020C945D00FB
:100050000C945D000C945D000C945D000C945D00AC
:100060000C945D000C945D005A0211241FBECFEF6A
:10007000D8E0DEBFCDBF11E0A0E0B1E0E6E0FAE0FD
:1000800002C005900D92A630B107D9F721E0A6E095
:10009000B1E001C01D92A331B207E1F710E0C5E362
:1000A000D0E004C02197FE010E94C202C433D107F0
:1000B000C9F70E9452020C9401050C940000EAE773
:1000C000F0E0808180688083808187608083ECE7B6
:1000D000F0E08081856080838081806480830895E2
:1000E00080917A00806480937A0080917A0086FD06
:1000F000FCCF809178009091790008959093C5008D
:100100008093C400E1ECF0E080818861808380818D
:1001100080688083E0ECF0E08081826080830895D5
:100120009091C00095FFFCCF8093C6000895809108
:10013000C00087FFFCCF8091C60008959F92AF92C8
:10014000BF92CF92DF92EF92FF920F931F93CF93C4
:10015000DF93A82EB42FA52FF62FE72F20E030E055
:1001600048EC52E46B2F7A2F8F2F9E2F0E94700441
:10017000962EB72E8C010E94A703EB01072E000CD0
:10018000880B990B0E94DF039B01AC01692D7B2D2D
:10019000C8010E94C80220E030E040E05FE30E9416
:1001A0006B0487FF21968A2D0E9490008D2F0E945C
:1001B00090008C2F0E9490008AE0DF91CF911F91D8
:1001C0000F91FF90EF90DF90CF90BF90AF909F90F6
:1001D0000C9490008F929F92AF92BF92EF92FF92F9
:1001E0000F931F93CF93DF930E94700080900201C2
:1001F00090900301A0900401B0900501E0900001EF
:10020000F0900101BC0180E090E00E94DD03A501B7
:1002100094010E9470048B01D82FC92FB70180E090
:1002200090E00E94DD039B01AC01B8018D2F9C2F53
:100230000E943503462F572FBC0186E5DF91CF91F1
:100240001F910F91FF90EF90BF90AF909F908F9074
:100250000C949E004F925F926F927F928F929F922A
:10026000AF92BF92CF92DF92EF92FF92CF93DF9344
:100270000E9470008090020190900301A090040100
:10028000B0900501C0910001D091010140900F0193
:10029000509010016090110170901201C0900B01FC
:1002A000D0900C01E0900D01F0900E01BC0180E0B7
:1002B00090E00E94DD03A50194010E9470044B01AF
:1002C0005C01BE0180E090E00E94DD039B01AC0177
:1002D000B401C5010E943503A30192010E9470047C
:1002E000A70196010E94C902462F572FBC0189E43D
:1002F000DF91CF91FF90EF90DF90CF90BF90AF90C4
:100300009F908F907F906F905F904F900C949E0085
:1003100040910F01509110016091110170911201F3
:1003200081E40C949E0040910B0150910C0160916E
:100330000D0170910E0182E40C949E00BC0180E0DE
:1003400090E00E94DD0320E030E048EC52E40E949F
:100350003503462F572FBC0140930F0150931001D6
:10036000609311017093120140910F01509110019F
:10037000609111017091120180E090E00E949D0255
:1003800040910F0150911001609111017091120183
:100390008EE40C949E00BC0180E090E00E94DD039E
:1003A00020E030E048EC52E40E943503462F572FFE
:1003B000BC0140930B0150930C0160930D017093AD
:1003C0000E0140910B0150910C0160910D01709153
:1003D0000E0184E090E00E949D0240910B0150913B
:1003E0000C0160910D0170910E018DE40C949E0042
:1003F000FC019081218132813227232732279D34CD
:10040000B9F038F4923479F0993449F0913449F0E4
:1004100008959E3451F0963571F40C94EA000C94D2
:100420002A010C9488010C949301C9010C949E013B
:10043000C9010C94CB0108951F920F920FB60F9231
:1004400011242F933F934F935F936F937F938F93D9
:100450009F93AF93BF93EF93FF930E949700E09118
:10046000060191E09E0F90930601F0E0E95FFE4FD8
:100470008083943031F487E091E00E94F80110927B
:100480000601FF91EF91BF91AF919F918F917F9165
:100490006F915F914F913F912F910F900FBE0F90F1
:1004A0001F90189578948FEC90E00E947E000E9437
:1004B0005F00FFCF80E090E00E947902462F572F27
:1004C000BC0140930F015093100160931101709390
:1004D000120184E090E00E947902462F572FBC0160
:1004E00040930B0150930C0160930D0170930E012A
:1004F0000895CF93DF9300D000D0CDB7DEB79C0135
:10050000F894FE013596CE010196F999FECF32BDE1
:1005100021BDF89A40B542932F5F3F4FE817F90786
:10052000A1F7789469817A818B819C810F900F90DB
:100530000F900F90DF91CF910895CF93DF9300D06C
:1005400000D0CDB7DEB79C0149835A836B837C838F
:10055000F894FE013596CE010196F999FECF32BD91
:1005600021BD429140BDFA9AF99A2F5F3F4FE8179B
:10057000F90799F778940F900F900F900F90DF91F3
:10058000CF910895EE0FFF1F0590F491E02D09948F
:100590005058BB27AA270E94E0020C9431040E9405
:1005A000230438F00E942A0420F039F49F3F19F404
:1005B00026F40C9420040EF4E095E7FB0C941A0446
:1005C000E92F0E94420458F3BA17620773078407A1
:1005D000950720F079F4A6F50C9464040EF4E095E8
:1005E0000B2EBA2FA02D0B01B90190010C01CA01ED
:1005F000A0011124FF27591B99F0593F50F4503E98
:1006000068F11A16F040A22F232F342F4427585F89
:10061000F3CF469537952795A795F0405395C9F7A1
:100620007EF41F16BA0B620B730B840BBAF0915059
:10063000A1F0FF0FBB1F661F771F881FC2F70EC0F8
:10064000BA0F621F731F841F48F4879577956795CB
:10065000B795F7959E3F08F0B0CF9395880F08F0B7
:100660009927EE0F9795879508950E9449030C945A
:1006700031040E942A0458F00E94230440F029F417
:100680005F3F29F00C941A0451110C9465040C94EA
:1006900020040E94420468F39923B1F3552391F397
:1006A000951B550BBB27AA2762177307840738F0E1
:1006B0009F5F5F4F220F331F441FAA1FA9F335D03E
:1006C0000E2E3AF0E0E832D091505040E695001CF2
:1006D000CAF72BD0FE2F29D0660F771F881FBB1FAC
:1006E000261737074807AB07B0E809F0BB0B802D8A
:1006F000BF01FF2793585F4F3AF09E3F510578F0B6
:100700000C941A040C9465045F3FE4F3983ED4F310
:10071000869577956795B795F7959F5FC9F7880F89
:10072000911D9695879597F90895E1E0660F771FDB
:10073000881FBB1F621773078407BA0720F0621B6C
:10074000730B840BBA0BEE1F88F7E09508950E9497
:10075000AE036894B1110C94650408950E944A0494
:1007600088F09F5798F0B92F9927B751B0F0E1F072
:10077000660F771F881F991F1AF0BA95C9F714C022
:10078000B13091F00E946404B1E008950C946404C7
:10079000672F782F8827B85F39F0B93FCCF386955B
:1007A00077956795B395D9F73EF4909580957095B8
:1007B00061957F4F8F4F9F4F0895E89409C097FB35
:1007C0003EF490958095709561957F4F8F4F9F4F28
:1007D0009923A9F0F92F96E9BB279395F69587956C
:1007E00077956795B795F111F8CFFAF4BB0F11F42F
:1007F00060FF1BC06F5F7F4F8F4F9F4F16C08823D6
:1008000011F096E911C0772321F09EE8872F762F0B
:1008100005C0662371F096E8862F70E060E02AF04C
:100820009A95660F771F881FDAF7880F9695879538
:1008300097F9089597F99F6780E870E060E0089560
:100840009FEF80EC089500240A94161617061806E8
:100850000906089500240A941216130614060506C4
:100860000895092E0394000C11F4882352F0BB0F55
:1008700040F4BF2B11F460FF04C06F5F7F4F8F4FB8
:100880009F4F089557FD9058440F551F59F05F3FF3
:1008900071F04795880F97FB991F61F09F3F79F0A2
:1008A00087950895121613061406551FF2CF469524
:1008B000F1DF08C0161617061806991FF1CF8695A6
:1008C0007105610508940895E894BB27662777278A
:1008D000CB0197F908950E94DD0408F48FEF089585
:1008E0000E9483040C9431040E94230438F00E9477
:1008F0002A0420F0952311F00C941A040C9420047F
:1009000011240C9465040E94420470F3959FC1F376
:10091000950F50E0551F629FF001729FBB27F00DAD
:10092000B11D639FAA27F00DB11DAA1F649F662702
:10093000B00DA11D661F829F2227B00DA11D621F51
:10094000739FB00DA11D621F839FA00D611D221F0B
:10095000749F3327A00D611D231F849F600D211DEF
:10096000822F762F6A2F11249F5750409AF0F1F072
:1009700088234AF0EE0FFF1FBB1F661F771F881FDB
:1009800091505040A9F79E3F510580F00C941A04F5
:100990000C9465045F3FE4F3983ED4F38695779515
:1009A0006795B795F795E7959F5FC1F7FE2B880F81
:1009B000911D9695879597F90895990F0008550F01
:1009C000AA0BE0E8FEEF16161706E807F907C0F0D5
:1009D00012161306E407F50798F0621B730B840BDD
:1009E000950B39F40A2661F0232B242B252B21F4B7
:1009F00008950A2609F4A140A6958FEF811D811D57
:060A00000895F894FFCFF9
:060A0600FF030000A04008
:00000001FF
